:0F000000116111A8D280740EF5A0117B75A00FAD
:10000F0075900E118F85F090116E7402F580740D3E
:0F001F00F5A0117B75A00F75900D118F85F090D6
:0F002E00116E7404F580740BF5A0117B75A00F93
:0F003D0075900B118F85F090116E758008740708
:0F004C00F5A0117B75A00F759007118F85F090AF
:0E005B0074F0F580010074F075F00F85F090E0
:0E00690085F0A0F5807406FC7409FB7403FD9D
:100077009000BE22EB93F5B079067A091BEB540F7B
:1000870093F5B0DAFED9F322ED540F93F5B0790367
:100097007A051DED540F93F5B0DAFED9F375B0402C
:1000A70022EC540F93F5B079067A061CEC540F93A3
:1000B700F5B0DAFED9F3223F065B4F666D7D077F09
:0100C7006FC9
:00000001FF
